:020000040800F2
:10000000A817002069020008790D00087B0D000880
:100010007D0D00087F0D0008810D00080000000024
:10002000000000000000000000000000830D000838
:10003000850D000800000000870D00088B0D0008EA
:10004000830200088302000883020008830200087C
:10005000830200088302000883020008830200086C
:10006000830200088302000883020008830200085C
:10007000830200088302000883020008830200084C
:10008000830200088302000883020008830200083C
:10009000830200088302000883020008830200082C
:1000A000830200088302000883020008830200081C
:1000B000830200088302000883020008830200080C
:1000C00083020008830200088302000883020008FC
:1000D00083020008830200088302000883020008EC
:1000E0008302000883020008F10F00088302000861
:1000F00083020008830200088302000883020008CC
:1001000083020008830200088302000883020008BB
:1001100083020008830200088302000883020008AB
:10012000830200088302000883020008830200089B
:10013000830200088302000883020008830200088B
:10014000830200088302000883020008F90F0008F8
:10015000830200088302000883020008830200086B
:10016000830200088302000883020008830200085B
:10017000830200088302000883020008830200084B
:10018000830200088302000800F002F800F05CF827
:100190000AA090E8000C82448344AAF10107DA45E2
:1001A00001D100F051F8AFF2090EBAE80F0013F0D8
:1001B000010F18BFFB1A43F001031847502A000033
:1001C000702A00000A444FF0000C10F8013B13F0B5
:1001D000070408BF10F8014B1D1108BF10F8015BA0
:1001E000641E05D010F8016B641E01F8016BF9D193
:1001F00013F0080F1EBF10F8014BAD1C0C1B09D1EA
:100200006D1E58BF01F801CBFAD505E014F8016B5B
:1002100001F8016B6D1EF9D59142D6D370470000ED
:100220000023002400250026103A28BF78C1FBD8FF
:10023000520728BF30C148BF0B6070471FB502F09E
:10024000E0FC1FBD10B510BD02F0A5FC1146FFF784
:10025000F5FF00F073FD02F0C3FC03B4FFF7F2FFFB
:1002600003BC02F0C7FC000009488047094800476A
:10027000FEE7FEE7FEE7FEE7FEE7FEE7FEE7FEE756
:10028000FEE7FEE704480549054A064B70470000B3
:10029000370E000889010008A8110020A8170020C7
:1002A000A8130020A8130020284908432849086003
:1002B000704730B50F23C27801780125FAB1244A7E
:1002C000126801F1E02102F4E062C2F5E062C2F3DB
:1002D0000722C2F10404D3404278A24084781C4033
:1002E0001443220181F80024007800F01F018D40A2
:1002F0004009800000F1E020C0F8005130BD01F05D
:100300001F0085404809800000F1E020C0F88051BE
:1003100030BD104A114001430D48001F0160704775
:100320000B4A121D0029116801D0014300E08143EE
:10033000116070474FF0E0210428086903D020F0D5
:1003400004000861704740F00400FAE70000FA0575
:100350000CED00E080FFFF1FF848016841F001014B
:100360000160F64A0021083211600268F44B1A401D
:100370000260031DF34A1A60F04BF34A84331A609B
:10038000F04A103A1B1D1A60026822F480220260B3
:10039000EA480C300160181D01607047E7490022EF
:1003A000891C0A7008707047024600205109012913
:1003B0000CD002290CD0E1497431096802F01F0207
:1003C000012393400B4200D001207047DB49F4E742
:1003D000DA497031F1E718B500204FF4A0440090DD
:1003E0003120FFF7E1FF0099491C0091A14201D0A3
:1003F0000028F5D03120FFF7D7FF002800D00120DA
:1004000018BDCE4A116821F0F80141EAC000106021
:100410007047CE4908607047C849002270310A70A1
:100420000A70012802D0042801D105200870704705
:10043000C7490860704741EA82115A0810B5C54B98
:10044000029C03EB02421143014341EA0460BB49B1
:10045000091D086010BDBD4908667047800140EA6B
:100460000170B649843108607047B84988667047A2
:10047000800140EA0160B14940EA027088310860B9
:100480007047B24908677047B049C8647047AB4BC2
:1004900008331A68084322F0EC6210431860704772
:1004A000A64B08331A68084322F0784210431860BC
:1004B0007047A24A0832116821F00301014311601C
:1004C00070479E480830006800F00C0070479B4A57
:1004D0000832116821F0F001014311607047974A1A
:1004E0000832116821F4E051014311607047934ACA
:1004F0000832116821F4604141EAC0001060704781
:1005000070B58E4B08331968934C11F00C0104D070
:100510006610042903D0082903D004601BE006609C
:1005200019E0864A121D1168C1F38055116801F067
:100530003F0115B1B6FBF1F101E0B4FBF1F1146834
:100540001268C4F388146143C2F30142521C520082
:10055000B1FBF2F1016019680F2202EA11117F4A22
:10056000545C0168E14041601C68072505EA942459
:10057000145D21FA04F484601B6805EA5333D25CED
:10058000D140C16070BDC0F30121032908D16B4B7C
:1005900008331968724A21F4F81102400A431A60BC
:1005A000664970310A68C0F30B0002430A60704765
:1005B00067494439086070476549403908607047A9
:1005C0006249C1F85C0170475C4A8C321168401E78
:1005D00021F01F01014311607047584A8C321168A5
:1005E0006FF0FF0321F4F85103EB00200843106083
:1005F0007047524A8C32116821F440110143116056
:1006000070474E4A8C32116821F440010143116059
:1006100070474A4A8C32116821F44031014311601D
:1006200070475049C1F8E0017047444A3032002910
:10063000116801D0014300E08143116070473F4AD7
:1006400034320029116801D0014300E08143116078
:1006500070473A4A38320029116801D0014300E05E
:10066000814311607047354A40320029116801D03A
:10067000014300E0814311607047304A4432002951
:10068000116801D0014300E08143116070472B4A9B
:1006900010320029116801D0014300E0814311604C
:1006A0007047264A14320029116801D0014300E046
:1006B000814311607047214A18320029116801D026
:1006C000014300E08143116070471C4A2032002939
:1006D000116801D0014300E0814311607047174A5F
:1006E00024320029116801D0014300E081431160E8
:1006F0007047124A50320029116801D0014300E0CE
:100700008143116070470D4A54320029116801D0AD
:10071000014300E0814311607047084A58320029C4
:10072000116801D0014300E0814311607047034A22
:1007300060320029116817D0014316E000380240EA
:10074000FFFFF6EA1030002400300020000047428E
:10075000800E47420000FFFF0024F400000000204C
:10076000FFFCFF0F00104742814311607047194A98
:100770000029116801D0014300E0814311607047F6
:1007800014490C310128086803D020F008000860E3
:10079000704740F00800FAE70E4A573A00291178EE
:1007A00001D0014300E081431170704709481030C7
:1007B000016841F08071016070470146054A0020E0
:1007C000583A12680A4200D0012070470149563950
:1007D0000870704764380240774910B5884206D1E6
:1007E00001210846FFF753FF002101205BE0734918
:1007F000884206D101210220FFF749FF0021022093
:1008000051E06F49884206D101210420FFF73FFFE4
:100810000021042047E06B49884206D101210820CD
:10082000FFF735FF002108203DE06749884206D1E7
:1008300001211020FFF72BFF0021102033E0634936
:10084000884206D101212020FFF721FF002120202E
:1008500029E05F49884206D101214020FFF717FFB8
:10086000002140201FE05B49884206D10121802001
:10087000FFF70DFF0021802015E05749884202D183
:10088000012184150AE05549884202D1012144150D
:1008900004E0534988420AD1012104152046FFF79C
:1008A000F6FE00212046BDE81040FFF7F0BE10BD67
:1008B000F0B5002201274FF0030C0B6807FA02F590
:1008C0002B40AB422CD1066853000CFA03F4A6432C
:1008D00006600E79D0F800E09E4046EA0E060660FB
:1008E0000E79012E01D0022E12D18668A6438660B1
:1008F0004E79D0F808E09E4046EA0E0686604668CB
:10090000AE43466045688E799640B6B23543456041
:10091000C568A543C560CC799C40C3681C43C460CE
:10092000521C102AC9D3F0BD4FF6FF71016000219F
:10093000017141718171C171704708B541F4803214
:100940000092C261C1610099C161C169C069009032
:1009500008BD0246002012690A4200D001207047FB
:10096000006980B270470246002052690A4200D0F6
:1009700001207047406980B270470183704741830E
:1009800070470AB1018370474183704741617047E6
:1009900042694A40426170474B07DB0E9A40C908E2
:1009A00010B500EB8100016A0F249C40A143016255
:1009B000016A1143016210BD0000024000040240C0
:1009C00000080240000C02400010024000140240E7
:1009D00000180240001C0240002002400024024097
:1009E00000280240354900200860091D0860091DE3
:1009F0000860091D086031493148143108607047AA
:100A000030B52E4A8379016853B313688B43136062
:100A1000111D0B680468A3430B60017911440B6836
:100A2000046823430B60254B083319680468A1430D
:100A300019601C1D21680568A943216041791029AE
:100A400005D011440A68006802430A6030BD196885
:100A5000026811431960216800680143216030BDBC
:100A60000079104402688A43026030BD00210160B1
:100A700001710C22427181717047104910310A686E
:100A800002430A60704701460C4A00201432126883
:100A90000A4200D0012070470849143108607047AD
:100AA0000146064A0020143212680A4200D0012092
:100AB000704702491431086070470000003C014053
:100AC000FFFF7F00234810B54168491C41608168E1
:100AD00011B18168491E8160AFF3008010BD10B56F
:100AE0001C4C2078002821D10120FFF757FCFFF78C
:100AF00072FC0028FBD0184801684FF47A70B1FBF3
:100B0000F0F0401EB0F1807F11D24FF0E022506132
:100B1000124BF02083F8140D002090610720106123
:100B20000F48B1FBF0F0E0600120207010BDFEE73F
:100B300008480078002805D04FF0E020016941F016
:100B40000201016170474FF0E020016921F00201CC
:100B50000161704710000020300000200FE000E02D
:100B6000C0C62D001CB501210820FFF75EFD4FF423
:100B70007040009000208DF8060001218DF80410CF
:100B80008DF8070003208DF8050069460C48FFF733
:100B90008FFE1CBD1CB501210846FFF746FD012054
:100BA000009000208DF806008DF804008DF80700F5
:100BB00003208DF8050069460248FFF779FE1CBD49
:100BC000000C02400000024008B556480090564B09
:100BD000564A0121564801F0A1FB564800214160C8
:100BE0008160C16001210170002008BD5148C068CA
:100BF00008B100207047012070474E48C068802827
:100C000001D0002070470120704711B54948484A7B
:100C10008189008989B280B2803A0DE0802800D1B4
:100C200000209DF80040135CA34201D1012018BDB3
:100C3000401C491E80B289B20029EFD1002018BDA6
:100C40003C4910B5CB6800228BB18B68802B00D358
:100C50008A60374B8C68803B1C5D047088681A542E
:100C6000401C8860C868401EC860032010BD027028
:100C7000042010BD01B582B09DF808008DF8000079
:100C80000121684601F01FFB00200EBD10B504468F
:100C900002E0641CFFF7EEFF20780028F9D110BDB8
:100CA00078B50D4606460024FFF7A0FFD0B90A200C
:100CB000FFF7ABFF10B9FFF7A0FF98B16D1EAC4274
:100CC0000CDA6846FFF7BCFF0328FAD19DF8000054
:100CD000305504F101040A28A4B2F0D100203055A7
:100CE000204678BD002078BD124B10B5D968802908
:100CF0000DD25A68802A01D300225A600C4C803CE5
:100D0000A054521C491C5A600020D96010BD02201A
:100D100010BD0848007810B10748007870470120DE
:100D20007047000074010020B00000202C0100205A
:100D300010020020200000207001002008B500F003
:100D40007AF8FFF70FFFFFF73FFF0A4DAC14AE1C18
:100D5000FFF7DFFF062801D03480F9E72C806846D2
:100D6000FFF76EFF0328F3D19DF80000FFF782FF25
:100D7000EEE70000180C02407047FEE7FEE7FEE7D2
:100D8000FEE7704770477047704710B5FFF79AFE4F
:100D900010BD00000CB50022544900920192086871
:100DA00040F4803008604FF4A043086800F400303D
:100DB00001900098401C0090019810B9009898424A
:100DC000F3D10868800334D50120019047484030B2
:100DD000026842F0805202604548026842F4404294
:100DE00002604248083002680260026842F4004231
:100DF0000260026842F4A0520260031F3D4A1A607A
:100E00000A6842F080720A600A689201FCD53A4989
:100E100040F205720A60016821F003010160016877
:100E200041F0020101600168C1F381010229FAD198
:100E30000CBD01920CBD314810B5016841F4700140
:100E400001602A48016841F001010160274A002140
:100E50000832116002682A4B1A400260031D294AB9
:100E60001A60026822F48022026020480C3001607F
:100E7000FFF790FF21494FF000608039086010BDF6
:100E800070B51A4D083528681F4B204910F00C002A
:100E900004D05E10042803D0082803D00B601BE0A8
:100EA0000E6019E0114A121D1068C0F380541068DA
:100EB00000F03F0014B1B6FBF0F001E0B3FBF0F03E
:100EC00013681268C3F388135843C2F30142521CDB
:100ED0005200B0FBF2F0086028680C4AC0F303101F
:100EE000121D105C0A68C2400A6070BD00380240E2
:100EF0000070004008544007003C024088ED00E0CC
:100F0000FFFFF6FE103000240024F4003000002023
:100F10002DE9FC4101210846FFF787FB4FF4C05043
:100F2000032500908DF8055002208DF80400002460
:100F3000334F8DF806408DF8074069463846FFF775
:100F4000B7FC0A220B213846FFF726FD0A220C21A6
:100F50003846FFF721FD8DF8055078158DF80440CF
:100F6000012600908DF806608DF8074069463846E6
:100F7000FFF79EFCB0028DF8066000908DF80760C8
:100F80008DF8055069463846FFF792FC0A22114653
:100F90003846FFF701FD01218803FFF76EFB0121B1
:100FA0008020FFF74CFBBDE8FC8108B54FF4C06022
:100FB000FFF77AF943208DF8000001208DF8010039
:100FC00003218DF802108DF803006846FFF771F9D0
:100FD00008BDC0EB00100021C0000722B0FBF2F0FA
:100FE000491C8142FCD970474FF47A714843F0E7BD
:100FF0004FF48020FFF75DBD024800F038BE0000CE
:101000000000024010020020F8B5002604463746D2
:101010000096F94D0320FFF7DCFFE06800690090BF
:101020007F1CAF4201D90020F8BD00980028F1DAFA
:101030000098002140F0010000900098E2681061E3
:10104000E06802690092491CA94202D8009AD207BE
:10105000F7D10320FFF7BDFF3046F8BD30B5054698
:101060000020EC78002C0CD105EB8202DB1C9B08E5
:10107000D2F8D02003E051F8045B1560641C9C4258
:10108000F9D330BD10B504460023D21C9008D4F823
:10109000D02003E0146841F8044B5B1C8342F9D371
:1010A000084610BD70B500220123C270402683702F
:1010B000154614468680012901D061B114E0C3723F
:1010C0000821017004214FF0A04241709115C180A8
:1010D0000221017208E0C4720C21017006214170E6
:1010E000C64A4FF4A061C18002F50061C0E9032146
:1010F00000210AE002EB411303F5106600EB8104C6
:1011000003F53063A661491C636543788B42F1D8CF
:1011100002F5806141614031C0F8CC10002108E047
:1011200002EB411300EB810403F5A063491CC4F8F2
:10113000903003788B42F3D8002108E002EB0133B2
:1011400000EB810403F58053491CC4F8D0300378C8
:101150008B42F3D802F56062C0F80C21284670BDBE
:1011600070B50446017A0025C068012915D0C16810
:1011700041F04001C1602046FFF746FF617A4FF41D
:10118000341009B14FF47410E16888631420FFF73C
:101190002BFFE078012819D020E0816B627A21F4DE
:1011A00080310AB141F480118163E068C16821F0A7
:1011B000401121F42021C1602046FFF725FFE0788F
:1011C00001280BD1E1682A208860E2E7E0688168A5
:1011D00021F01E010A3141F020018160284670BDD6
:1011E000C0680022816841F00101816010467047AB
:1011F000C0680022816821F00101816010467047BB
:1012000038B50024034622460094009840F02000A0
:101210000090009861F38A1000900098D9680861E6
:101220007548D9680B690093521C824202D8009B12
:101230009B06F7D40320FFF7CCFE204638BD38B517
:101240000024024621460094009840F010000090CF
:101250000098D36818616848D26813690093491CE4
:10126000814202D8009BDB06F7D40320FFF7B1FED2
:10127000204638BD10B5C3680024D868012920F085
:10128000C04201D019B104E042F0005201E042F046
:101290008042DA603220FFF7A7FE204610BDC0680A
:1012A000406900F001007047C068406910F0010F0C
:1012B00001D00020704701207047C068406910F0DD
:1012C000010000D001207047C06841698069084072
:1012D0007047C068406870470069026861F30102A6
:1012E0000260704730B5C368002211469A61C46835
:1012F0006FF080436361C568541E6C60C4686361AD
:10130000C4683F4BA361C37803B91021C06841F49E
:10131000872141F00811836941F440118B430B434D
:101320008361104630BD2DE9F04104460026D0F817
:101330000C0135462B4606602069016821F4C05136
:101340000160E07A012829D103212046FFF7C4FF7C
:10135000E1688020486220212F46E26861F31F4740
:1013600060F30F07976207EB174262F30F0360F316
:101370001F43E068C0F8043103EB134060F30F0330
:10138000E06861F31F43C0F8083103EB134060F3DA
:101390000F03E06865F31F43C0F80C3110212046AD
:1013A000FFF72EFF2046FFF74AFF206905612069FD
:1013B000456121694FF0FF3088612069C5610020D7
:1013C0004FF09043FF2711E004EB8002D2F818C0E1
:1013D000DCF80010002901DA194600E02946CCF8B3
:1013E000001091690D6191698F60401C61788142A4
:1013F000EAD8002018E00000400D0300000004407F
:101400000008008004EB8002D2F854C0DCF8001021
:10141000002901DA194600E02946CCF80010516D88
:101420000D61516D8F60401C61788142EAD820695E
:10143000016941F480710161E078012809D103203C
:10144000402161F38A0040F4803061F35940216902
:1014500008632046FFF746FF3046BDE8F0810146AD
:10146000002009698968C1F3410139B1012903D01C
:10147000022905D0032900D10220704703207047BC
:101480000120704710B501690024896883691A68D2
:10149000C1F3410129B1012903D0022904D0032954
:1014A00005D16FF30A0202E06FF30A02D21C1A6040
:1014B0000069416841F480714160204610BDF0B57B
:1014C00006460D7800204F780124AC40034606EB19
:1014D0008502012F18D0526D64F31F431468250450
:1014E0000DD40D8965F30A04CD78897965F39344A9
:1014F00061F3995444F0805141F400411160316925
:10150000CA691A43CA61F0BD926964F30F03E5E743
:1015100070B50B78044600254E7801229A40284683
:1015200004EB8301012E09D0496D62F31F400D6069
:101530002169CA698243CA61284670BD896962F31C
:101540000F00F4E7F0B54B780A7800240125D1F8B4
:1015500014C000EB8202012B17D0566D326833693C
:10156000BCF1000F64D08D680CEB05077F1EB7FB44
:10157000F5F767F3DC43C3F3C9476F4367F312031F
:101580003361C378012B59D05EE097693A683E69B0
:10159000BCF1000F0DD08B686CF312069C44ACF1CB
:1015A000010CBCFBF3F363F3DC46CB78012B05D0D5
:1015B00008E06FF3120665F3DC4603E026F0C04650
:1015C00006F100563E61C378012B0ED0CB78012B7B
:1015D00012D04B69BBB10B789D4003695E6B2E4303
:1015E0005E63CB78012B07D00DE00D780B6900EB23
:1015F0008505AD696B61F4E703699B681B0ADB072E
:101600000CD042F080520B7842F0044200EB83038E
:101610009B691A60CA78012A03D026E042F0005282
:10162000F1E78A8A93B20A78C968FFF717FD1CE0D0
:101630008F6867F3120365F3DC43A1E70D780B694C
:1016400000EB85056D6D6B61CB78012B06D14B7975
:1016500013B142F0005201E042F08052097842F0AA
:10166000044200EB8100406D02602046F0BDF0B501
:101670004B7800254A69012B14D00B7800EB8304CA
:10168000636D1E681B69E2B38A684A6162F30603F0
:1016900023F4C012636D02F500221A61C278012A98
:1016A00032D037E083691F681C6932B18E68B2425C
:1016B00008D966F306044E6106E024F07F0222F4A6
:1016C000C01203E062F3060424F4C01202F5002203
:1016D0001A61C278012A05D10C780A6900EB8404EA
:1016E000A469626147F004421A60C278CAB94A69C3
:1016F000BAB10A78006901219140426B0A43426302
:101700000FE0FFE70A7AC1E70B780A6900EB830371
:101710005B6D5A61097846F0044200EB8100406D30
:1017200002602846F0BD02464B780978002002EBA3
:101730008101012B05D0496D0A6842F400120A604C
:1017400070478A691168002901DA41F0804141F44B
:1017500000111160704710B503464C780A780020DC
:1017600003EB8202012C09D0526D1368C97823F46F
:101770000013032904D0022902D003E09269F4E7A0
:1017800043F08053136010BD00698169C06908404F
:10179000000C704700EB8101496D89680069406960
:1017A0000840704700698169C069084080B270478D
:1017B000426D5C491161C178012908D1426D00F286
:1017C000CC515161406D01684FF08021016070473C
:1017D00010B50446D0F81801002819D02069806897
:1017E000C00715D0A07A30B1D4F80C01D4F80C1190
:1017F00020F0030008602069416841F00101416068
:101800000520FFF7F1FB2069416821F001014160EB
:1018100010BD817A00290AD001698968C90706D0FC
:10182000D0F80C11D0F80C0121F0030101607047D1
:1018300010B50446012084F812010020FF2206E0C2
:1018400004EB80018B699A60496D8A60401C617865
:101850008142F5D821690020086121694861216928
:10186000C8612169401E88612046FFF7E8FC2046D8
:10187000BDE810401021C3E44A780978012A00EB42
:10188000810006D0406D006881020ED54FF4805073
:10189000704780690068810201D51020704780037D
:1018A00001D52020704730207047800302D54FF4C7
:1018B000005070474FF44050704730B44C780B786C
:1018C000002500EB8303012C0BD05C6D2368B2F57F
:1018D000805F17D0B2F5005F17D0B2F5405F0CD033
:1018E00007E09C692368102A05D0202A0DD0302AF1
:1018F00003D092B113E030BC15E79A0208D54D71C0
:1019000030BC28E743F4001309E043F0006306E02D
:1019100043F0806040F0802301E023F40043236023
:1019200030BC7047180008C070B50446FFF7BAFB1A
:101930000120002384F8120184F814311A4640254E
:1019400010E002EB820104EBC10181F81D0181F876
:101950001C21A1F8222181F81F31C1E94953521CF1
:10196000C1F8303161789142EBD8002010E000EBF3
:10197000800104EBC10181F8753381F87403A1F88B
:101980007A0381F87733C1E9DF53401CC1F888330B
:1019900061788142EBD82046FFF72AFC2046FFF70A
:1019A000DFFB00212046FFF765FC2046FFF7BBFC6C
:1019B0002046BDE87040FFF713BC70B50D460E061B
:1019C00001F07F0404EB840100EBC10102D501F5B5
:1019D0008E7101E001F55D71ED090C704D708A604A
:1019E000CB7000D0CC80022B01D100220A71FFF70E
:1019F00066FD002070BD10B50B460C0601F07F029D
:101A000002EB820100EBC10102D501F58E7101E00C
:101A100001F55D710A70DA094A70FFF779FD00205F
:101A200010BD10B501F07F0404EB840100EBC1018F
:101A3000C1F88833C1F880230023C1F88C3381F8C2
:101A4000753381F87443C37801F55D71012B00D1C2
:101A50000A6114F0FF0F03D0FFF774FD002010BDE2
:101A6000FFF705FEFAE770B511F07F0404EB84017F
:101A700000EBC1014FF0010581F81D5181F81C41B7
:101A8000C1F82821C1F82C2101F58E714FF0000218
:101A9000C1E9053203D0FFF755FD002070BDFFF707
:101AA000E6FDFAE70A4610B5090602F07F0306D5FF
:101AB00003EB830100EBC10101F58E7105E002EB40
:101AC000820100EBC10101F55D7101248C700B7086
:101AD000D2094A70FFF727FE002010BD0A4610B554
:101AE000090602F07F0306D503EB830100EBC10179
:101AF00001F58E7105E002EB820100EBC10101F5F9
:101B00005D7100248C700B70D2094A70FFF723FEC0
:101B1000002010BD10B50A0604D501F07F01FFF7C3
:101B20006FFB01E0FFF78BFB002010BD0069002276
:101B300061F30A120168114301607047006941684E
:101B400021F0020141600320FFF74EBA00694168AD
:101B500041F0020141600320FFF746BA0A0608D5AA
:101B600001F07F0101EB810100EBC10101F58E71F4
:101B700005E001EB810100EBC10101F55D71FFF7AB
:101B80007BBE0B0608D501F07F0101EB810100EB64
:101B9000C10101F58E7105E001EB810100EBC1018E
:101BA00001F55D71FFF789BE2DE9F041064600247D
:101BB000FFF7F8FD074655E0F80751D03069E1B26C
:101BC0000369426BCA4006EB810102F00102896998
:101BD00043EAC2128D681540E9071AD00125426B0D
:101BE00005FA04F18A43426306EB8400806985604C
:101BF000FE48E1B20068426830469047F07801281C
:101C000007D134B996F81101042802D13046FFF704
:101C1000CFFD280704D506EB840008258069856080
:101C2000E80604D506EB8400102580698560680607
:101C300004D506EB8400402580698560A80704D59B
:101C400006EB8400022580698560280608D52146B8
:101C5000304600F060F906EB8401802089698860D5
:101C60007F08641C002FA7D10120BDE8F0812DE979
:101C7000F04706460024FFF717FB00287ED03046C9
:101C8000FFF722FB05007AD0280303D5304600F089
:101C90007AF90446680303D53046FFF785FF04430D
:101CA000A8074FF0000A02D5F16802204861DFF86A
:101CB0003C834FF00109002D18DAB07A30B1D6F824
:101CC0000C01D6F80C1120F003000860306941685F
:101CD00021F001014160D8F8000081693046884751
:101CE000F1684FF00040486144F00104280503D535
:101CF000304600F0DDF80443280709D5D8F8000085
:101D0000C16830468847F1680820486144F0010402
:101D1000E80603D5304600F08DF80443E80403D507
:101D2000304600F047F80443A80419D53046FFF7C1
:101D3000A9FBF068C7683046FFF791FB03282FD056
:101D400086F80290402127F47050B18000F5A05031
:101D5000F168C860F1684FF40050486144F0010434
:101D6000E8020AD5D8F80000C16930468847F16812
:101D70004FF48010486144F0010401E00DE00DE0F3
:101D8000A8020AD5D8F80000016A30468847F168F1
:101D90004FF40010486144F001042046BDE8F0878C
:101DA00086F802A04FF4007127F47050B18000F55E
:101DB0001050CDE770B50446006900250126416842
:101DC00021F00101416029462046FFF719FA002061
:101DD000FF2206E004EB80018B699A60496D8A60FE
:101DE000401C61788142F5D821694FF0FF3088614D
:101DF0002846216966F30F0066F31F40C861216918
:101E000045F00B004861216945F00B00086120692D
:101E1000016821F4FE6101602046FFF7C9FCE1681A
:101E20004FF4805048617148006801692046884736
:101E3000012070BD70B50546C068816921F01001B0
:101E40008161E868066A06F00F0000EB800005EB90
:101E5000C004C6F3434004F55D74072821D2DFE8CF
:101E600000F0202004202020150047F6F0700642E4
:101E700017D0C6F30A1632462846E168FFF702F982
:101E8000E0683044E060A069304409E0082205F2CF
:101E9000CC512846FFF7F6F8A069C6F30A110844AA
:101EA000A061E868816941F010018161012070BD85
:101EB00038B5044600208DF8000094F812018DF822
:101EC00000004A48006841692046884720698068C8
:101ED000E2684FF400615161A17AD1B1C00718D016
:101EE00094F81501012814D19DF80000032810D1A1
:101EF000D4F80C01016841F001010160D4F80C0133
:101F0000016841F0030101603948016841F00601B0
:101F10000160012038BD2DE9F0470E4601EB860136
:101F200000EBC1048146D4E94C01401AD4F82411D5
:101F300004F58E74814200D20846C01C870809EB64
:101F4000860812E0451AA068A84200D20546E81C9F
:101F50008708ABB2F2B24846E168FFF77FF8E06865
:101F60002844E060A0692844A061D8F8180080697E
:101F700080B2B84205D9D4E90501814201D20028D6
:101F8000E0D101200AE72DE9F04105460024FFF7E2
:101F9000FBFB0746DFF8548048E0F80744D0E1B285
:101FA0002846FFF7F7FB0646C0072AD005EB84005A
:101FB0000126416D8E60E97801290CD1406D0169DF
:101FC00004EB840005EBC000C1F31201D0F87C23C0
:101FD000511AC0F88C13D8F80000E1B20268284604
:101FE0009047E87801280CD15CB903E02401002077
:101FF00010ED00E095F81101052802D12846FFF701
:10200000D7FBB00704D505EB84000226406D86603F
:10201000300709D5D8F8000081682846884705EBC5
:1020200084010820496D88607F08641C002FB4D1AA
:1020300001201AE610B50446022340228121FFF751
:10204000BCFC0223402201212046FFF7B6FC0323FB
:10205000082282212046FFF7B0FC81490220087146
:10206000002048717F480168884740237E4A01214B
:102070002046FFF7D6FC002010BD10B50446812194
:10208000FFF7B9FC01212046FFF7B5FC822120466D
:10209000FFF7B1FC734840688047002010BD70B561
:1020A0000C460546714809783A2211F06003A0F108
:1020B000310622D0202B05D02146284600F01CFBFB
:1020C000022070BD6748E28883688AB1080660789C
:1020D00006D56649113998476449E288113920E0EC
:1020E000C6E9050261492846113900F0C2FA28E024
:1020F000002260781146984723E06178062904D0D1
:102100000A2912D00B291CD113E061882123B3EBDB
:10211000112F05D15548E28809303A2A00D93A22D0
:102120000146284600F08CFA0BE0504901222D3977
:10213000F7E7608810F0FF0F05D02146284600F031
:10214000DBFA002070BDC0B27060FAE710B5474CF2
:10215000313C6069FF2807D04249A2698B6804F1CD
:1021600020019847FF206061002010BD70B53F4DF1
:10217000313D2978012919D12A69002652B1294611
:10218000402AC9688CB207D940234031403AC5E99A
:10219000031205E02E7009E01144C5E9031693B25D
:1021A000314940310A198121FFF75DFC002070BDE3
:1021B00010B5044601EB810004EBC000B0F88C03BD
:1021C00081B228480269284890474023264A0121C5
:1021D0002046FFF726FC002010BDF0B4234D313D12
:1021E000297801290AD0E9680026B1F5006F00D1ED
:1021F000EE60D5E90221914202D12E70F0BC704709
:1022000002D9C1F5006201E0A2EB01022A61402A75
:102210008CB205D940234031403AC5E9031203E0AE
:102220001144C5E9031693B2012129700E494031CA
:102230000A19F0BC8121FFF716BC0C4A10B5313ADF
:10224000D169491CD161062903D10021D161FFF771
:10225000C4FF002010BD432008800448093870479F
:102260004C010020E400002004080020750000203C
:102270000020704700207047042822DD234A2028D0
:1022800002D021281DD10BE0CB78086863F31F60D2
:10229000106008791071487950718879907110E058
:1022A000107808701088000A48701068000C887058
:1022B0001068000EC87010790871507948719079D3
:1022C000887100207047F0B50022114E114C4FF478
:1022D000006C174608E03368855CE5545B1C33608E
:1022E000634500D33760521C8A42F4D30020F0BD0E
:1022F00070B50D460646002403E0305DFEF7F4FCA1
:10230000641CAC42F9D3002070BD0000DC0000204A
:102310004C00002044080020002070472DE9F041C7
:102320001D46174688460446069EFEF7F1FD04F258
:10233000E452414682E8E0002046FFF7F5FAD4F87F
:10234000E805006880472046BDE8F041FEF72DBE55
:102350001CB50446694600F074FB9DF8002012F09D
:102360001F010AD001290DD0022910D002F08001EE
:102370002046FFF797FB00201CBD6946204600F071
:1023800067FAF8E76946204600F0D8FAF3E76946AD
:10239000204600F0EEFAEEE770B5054641B1D5F8FB
:1023A000E4058269FAB195F8120103282AD02BE0DE
:1023B00095F8110105F55D74032825D1A168E06940
:1023C000884211D9401AE061E878012802D1E0681A
:1023D0000844E060E069884200D3084682B228469B
:1023E000E16800F056F90FE0D5F8E405016929B17C
:1023F00095F81201032801D128468847284600F0A5
:1024000051F901E028469047002070BD70B505469F
:1024100041B1D5F8E40542698AB395F81201032861
:1024200046D047E095F81101002605F58E74022884
:1024300033D1E169A06881420FD9081AE061E878D8
:10244000012803D1D4E902100844E060A08BE168C0
:1024500082B2284600F004F91FE0216AB1FBF0F2D5
:1024600000FB121262B981420AD3606A814207D22C
:1024700000221146284600F0F3F866620DE016E0EF
:10248000D5F8E405C16829B195F81201032801D1F6
:1024900028468847284600F016F995F816010128C5
:1024A00008D1324800682969486085F8166101E062
:1024B00028469047002070BD10B5002304464022F6
:1024C0001946FFF77AFA0023402280212046FFF7C1
:1024D00074FA012084F81201D4F8E815A07849684C
:1024E0008847002010BD10B50446D0F8E805006903
:1024F0008047032084F81201002010BD10B590F829
:10250000121180F81311042180F81211D0F8E80597
:10251000C0688047002010BD10B5D0F8E415C96927
:1025200001B18847002010BD10B50446D0F8E4057D
:10253000026820469047D4F8E8058068804700206C
:1025400010BD10B5D0F8E42552689047002010BDAA
:1025500010B5D0F8E415096A8847002010BD10B501
:10256000D0F8E415496A8847002010BD28010020F2
:102570001220088017487047042008801548001F63
:10258000704710B50A46144914A000F07CFA1248AE
:1025900010BD10B50A46104919A000F074FA0E4893
:1025A00010BD10B50A460C491AA000F06CFA0A4892
:1025B00010BD10B50A4608491AA000F064FA064892
:1025C00010BD10B50A46044919A000F05CFA024893
:1025D00010BD00004C0100204410002053544D3326
:1025E00032205669727475616C20436F6D506F7242
:1025F0007420696E204653204D6F64650000000012
:1026000053544D6963726F656C656374726F6E6964
:10261000637300003030303030303030303530438C
:102620000000000056435020436F6E66696700004B
:1026300056435020496E7465726661636500000000
:1026400010B5C0F83C210223C0F8382180F81131C0
:10265000134600240A462146FFF705FA204610BD1E
:1026600010B5134600240A462146FFF7FCF9204620
:1026700010BD10B5C0F894230323C0F8902380F850
:102680001131134600240A462146FFF7CAF92046B5
:1026900010BD10B5134600240A462146FFF7C1F9C4
:1026A000204610BD70B505460024042085F81101B0
:1026B0002346224621462846FFF7D5F92846FFF74C
:1026C00077F8204670BD70B505460024052085F8D2
:1026D00011012346224621462846FFF7A2F9284643
:1026E000FFF766F8204670BD01EB810100EBC100E9
:1026F000B0F88C0380B2704710B504468021FFF714
:10270000D1F900212046FFF7CDF92046BDE8104061
:10271000FFF74EB870B50A46FB4D8978044629701C
:10272000012905D894F81201022806D003280BD0FD
:102730002046BDE870401146DEE7A1B184F81011D3
:10274000032084F812010BE091B194F81001884243
:1027500009D001462046FFF7F4FE297884F81011CD
:102760002046FFF7E1FE2046BDE87040FFF79ABF24
:10277000022084F8120184F810112046FFF7E1FED0
:10278000F1E738B5044648880D46010A04295AD2B3
:10279000DFE801F059021420D4F8EC15A0780A689B
:1027A000694690470146E888402803D094F8120112
:1027B000012837D10820ADF8000037E0D4F8E4153F
:1027C000A0788A6A69469047014602204870C4F89A
:1027D000F01527E0C0B2062835D2DFE800F0030884
:1027E0000D12171CD4F8EC15A0784A6817E0D4F83D
:1027F000EC15A0788A6812E0D4F8EC15A078CA68C5
:102800000DE0D4F8EC15A0780A6908E0D4F8EC15CE
:10281000A0784A6903E0D4F8EC15A0788A69694683
:1028200090470146BDF8000000280BD0EA88002A36
:1028300008D080B2824200D90246ADF8002020467E
:10284000FFF7FEFE38BD29462046FFF755FF38BD8D
:102850002DE9F0414A78002701260A2A43D2DFE811
:1028600002F03C554252420805422A27FFF789FFF1
:1028700061E004468888C8B9C888B8B9887800F08B
:102880007F0594F81201032810D084F814512946CA
:102890002046FFF74BF92046FFF704FF1DB1022049
:1028A00084F8120147E084F8126144E020461AE0FF
:1028B000FFF730FF3FE0CA88012A14D190F81221B7
:1028C000022A02D0032A0ED103E08F4901220831E7
:1028D00016E0012200F5887112E090F81221022A18
:1028E00004D0032A02D0FFF707FF24E08649CE6018
:1028F000D0F818210AB10322CA60834902220C31A0
:10290000FFF79EFE17E000F0E1F814E0044690F8AF
:102910001201022801D00328C8D1488801280AD111
:102920000020C4F81801D4F8E405826820469047D6
:102930002046FFF7B7FE3846BDE8F08170B5054682
:1029400090F8120100260C4603280DD120790128A9
:102950000AD8D5F8E405826828469047E08830B95F
:102960002846FFF79FFE02E02846FFF7C5FE3046E7
:1029700070BD70B50D46044609796878002658B3D5
:10298000012816D0032831D194F8120102282FD043
:10299000032827D1688828B921B1802902D0204690
:1029A000FFF780F8D4F8E40529468268204690476E
:1029B0000EE094F8120102281AD0032812D1688878
:1029C000A0B929B1802903D02046FFF787F8E9E7AD
:1029D0002046FFF767FE09E094F81201022807D0AD
:1029E00003280DD029462046FFF786FE304670BDED
:1029F0000029FBD08029F9D02046FFF753F8F5E7EE
:102A0000414A08064FF000034FF0010508D501F0D8
:102A10007F0000EB800004EBC00090F81E0105E091
:102A200001EB810004EBC00090F8760308B155601B
:102A300000E0536034490222091D2046FFF700FEE2
:102A4000D4E790F8CC250A7090F8CD254A7090F81C
:102A5000CE2590F8CF3502EB03224A8090F8D0259E
:102A600090F8D13502EB03228A8090F8D22590F8B5
:102A7000D33502EB032292B2CA800121C0F8402173
:102A800080F81111704770B5002300281DD004464E
:102A9000002502E06D1CEDB2641C2678002EF9D1F1
:102AA000022404EB45041480CC545B1C0322CA545A
:102AB00000245B1C06E0CA545B1CDAB28C54521C26
:102AC000D3B2401C0278002AF5D170BD10B504467F
:102AD0004888012201280FD0022833D1888810F0BD
:102AE000FF0F2FD121694968000A062821D2DFE8AB
:102AF00000F0200D1115191DC4F81821D4F8E405B3
:102B000082682046904718E06001002021F07001A3
:102B100010310EE021F0700120310AE021F0700147
:102B2000303106E021F07001403102E021F0700107
:102B300050310548016084F816212046BDE8104058
:102B4000FFF7B0BD10BD0000280100200F4905208F
:102B5000087070470D490520087070470B49062022
:102B6000087070470949052008707047074905201B
:102B70000870704705490520087070470349052013
:102B8000087070470148007870470000700100200D
:102B9000704770477047754600F028F8AE4605004C
:102BA0006946534620F00700854618B020B5FDF76A
:102BB00069FBBDE820404FF000064FF000074FF0E2
:102BC00000084FF0000B21F00701AC46ACE8C0094B
:102BD000ACE8C009ACE8C009ACE8C0098D46704754
:102BE0000446AFF300802046FDF737FB00487047EE
:102BF0004411002001491820ABBEFEE72600020068
:102C000070474FF04070E1EE100A70472C2C00081E
:102C10000000002090010000C4010008142D0008ED
:102C2000900100201816000020020008412D01022A
:102C3000030404052106070809847A030A091A34E3
:102C40000213FF140902431302012DC03209043D8F
:102C5000190B130524161001052401100901042481
:102C600002020524061701070582030815FF09045F
:102C7000012A026A2E0705010240072A8107111363
:102C800035201B087B041A9F0441134D211B086D3E
:102C9000041AB1044B3B2214412A570C33C20112CF
:102CA000081A710C1A75041A79041AC7041AF10467
:102CB00013992314080D241B0851081319251B0808
:102CC000B90C1AFD042AE71419101A5F048122F8BE
:102CD00042201A71141A79041A93041A83041AA34D
:102CE000041AB3041AC3041E0403090412B3311EE8
:102CF0004083044057E92B02037FF12A05B4122BCD
:102D00001B0855041A5D041A65041A6D041A75042B
:042D10001A7D040024
:040000050800026984
:00000001FF
