:020000040800F2
:10000000B007002039020008CD180008CF180008FA
:10001000D1180008D3180008D51800080000000007
:10002000000000000000000000000000D7180008D9
:10003000D918000800000000DB180008DF180008CD
:10004000530200085302000853020008530200083C
:10005000530200085302000853020008530200082C
:10006000530200085302000853020008530200081C
:10007000530200085302000853020008530200080C
:1000800053020008530200085302000853020008FC
:1000900053020008530200085302000853020008EC
:1000A00053020008530200085302000853020008DC
:1000B00053020008530200085302000853020008CC
:1000C00053020008530200085302000853020008BC
:1000D00053020008E7160008071700082B1700084E
:1000E000530200085302000853020008530200089C
:1000F000530200085302000853020008530200088C
:10010000530200085302000853020008530200087B
:100110004F17000873170008530200085302000825
:10012000530200085302000853020008530200085B
:10013000530200085302000853020008530200084B
:10014000530200085302000853020008530200083B
:1001500053020008530200085302000895170008D4
:10016000530200085302000853020008530200081B
:10017000530200085302000853020008530200080B
:10018000530200085302000800F002F800F044F89F
:100190000AA090E8000C82448344AAF10107DA45E2
:1001A00001D100F039F8AFF2090EBAE80F0013F0F0
:1001B000010F18BFFB1A43F001031847D81C0000B9
:1001C000F81C0000103A24BF78C878C1FAD852074A
:1001D00024BF30C830C144BF04680C6070470000C1
:1001E0000023002400250026103A28BF78C1FBD840
:1001F000520728BF30C148BF0B607047642901F027
:100200006D84782901F0A684002070471FB501F0A5
:100210001FFE1FBD10B510BD01F0DDFD1146FFF73B
:10022000F5FF01F0D7FA01F0FBFD03B4FFF7F2FF91
:1002300003BC01F0FFFD0000094880470948004762
:10024000FEE7FEE7FEE7FEE7FEE7FEE7FEE7FEE786
:10025000FEE7FEE704480549054A064B70470000E3
:100260008B19000889010008B0010020B0070020A8
:10027000B0030020B0030020284908432849086043
:10028000704730B50F23C27801780125FAB1244AAE
:10029000126801F1E02102F4E062C2F5E062C2F30B
:1002A0000722C2F10404D3404278A24084781C4063
:1002B0001443220181F80024007800F01F018D40D2
:1002C0004009800000F1E020C0F8005130BD01F08D
:1002D0001F0085404809800000F1E020C0F88051EF
:1002E00030BD104A114001430D48001F01607047A6
:1002F0000B4A121D0029116801D0014300E081431F
:10030000116070474FF0E0210428086903D020F005
:1003100004000861704740F00400FAE70000FA05A5
:100320000CED00E080FFFF1FF848016841F001017B
:100330000160F64A0021083211600268F44B1A404D
:100340000260031DF34A1A60F04BF34A84331A60CB
:10035000F04A103A1B1D1A60026822F480220260E3
:10036000EA480C300160181D01607047E74900221F
:10037000891C0A7008707047024600205109012943
:100380000CD002290CD0E1497431096802F01F0237
:10039000012393400B4200D001207047DB49F4E772
:1003A000DA497031F1E718B500204FF4A04400900D
:1003B0003120FFF7E1FF0099491C0091A14201D0D3
:1003C0000028F5D03120FFF7D7FF002800D001200A
:1003D00018BDCE4A116821F0F80141EAC000106052
:1003E0007047CE4908607047C849002270310A70D2
:1003F0000A70012802D0042801D105200870704736
:10040000C7490860704741EA82115A0810B5C54BC8
:10041000029C03EB02421143014341EA0460BB49E1
:10042000091D086010BDBD4908667047800140EA9B
:100430000170B649843108607047B84988667047D2
:10044000800140EA0160B14940EA027088310860E9
:100450007047B24908677047B049C8647047AB4BF2
:1004600008331A68084322F0EC62104318607047A2
:10047000A64B08331A68084322F0784210431860EC
:100480007047A24A0832116821F00301014311604C
:1004900070479E480830006800F00C0070479B4A87
:1004A0000832116821F0F001014311607047974A4A
:1004B0000832116821F4E051014311607047934AFA
:1004C0000832116821F4604141EAC00010607047B1
:1004D00070B58E4B08331968934C11F00C0104D0A1
:1004E0006610042903D0082903D004601BE00660CD
:1004F00019E0864A121D1168C1F38055116801F098
:100500003F0115B1B6FBF1F101E0B4FBF1F1146864
:100510001268C4F388146143C2F30142521C5200B2
:10052000B1FBF2F1016019680F2202EA11117F4A52
:10053000545C0168E14041601C68072505EA942489
:10054000145D21FA04F484601B6805EA5333D25C1D
:10055000D140C16070BDC0F30121032908D16B4BAC
:1005600008331968724A21F4F81102400A431A60EC
:10057000664970310A68C0F30B0002430A60704795
:1005800067494439086070476549403908607047D9
:100590006249C1F85C0170475C4A8C321168401EA8
:1005A00021F01F01014311607047584A8C321168D5
:1005B0006FF0FF0321F4F85103EB002008431060B3
:1005C0007047524A8C32116821F440110143116086
:1005D00070474E4A8C32116821F44001014311608A
:1005E00070474A4A8C32116821F44031014311604E
:1005F00070475049C1F8E0017047444A3032002941
:10060000116801D0014300E08143116070473F4A07
:1006100034320029116801D0014300E081431160A8
:1006200070473A4A38320029116801D0014300E08E
:10063000814311607047354A40320029116801D06A
:10064000014300E0814311607047304A4432002981
:10065000116801D0014300E08143116070472B4ACB
:1006600010320029116801D0014300E0814311607C
:100670007047264A14320029116801D0014300E076
:10068000814311607047214A18320029116801D056
:10069000014300E08143116070471C4A2032002969
:1006A000116801D0014300E0814311607047174A8F
:1006B00024320029116801D0014300E08143116018
:1006C0007047124A50320029116801D0014300E0FE
:1006D0008143116070470D4A54320029116801D0DE
:1006E000014300E0814311607047084A58320029F5
:1006F000116801D0014300E0814311607047034A53
:1007000060320029116817D0014316E0003802401A
:10071000FFFFF6EA103000240030002000004742BE
:10072000800E47420000FFFF0024F400000000207C
:10073000FFFCFF0F00104742814311607047194AC8
:100740000029116801D0014300E081431160704726
:1007500014490C310128086803D020F00800086013
:10076000704740F00800FAE70E4A573A002911781E
:1007700001D0014300E081431170704709481030F7
:10078000016841F08071016070470146054A002010
:10079000583A12680A4200D0012070470149563980
:1007A0000870704764380240774910B5884206D116
:1007B00001210846FFF753FF002101205BE0734948
:1007C000884206D101210220FFF749FF00210220C3
:1007D00051E06F49884206D101210420FFF73FFF15
:1007E0000021042047E06B49884206D101210820FE
:1007F000FFF735FF002108203DE06749884206D118
:1008000001211020FFF72BFF0021102033E0634966
:10081000884206D101212020FFF721FF002120205E
:1008200029E05F49884206D101214020FFF717FFE8
:10083000002140201FE05B49884206D10121802031
:10084000FFF70DFF0021802015E05749884202D1B3
:10085000012184150AE05549884202D1012144153D
:1008600004E0534988420AD1012104152046FFF7CC
:10087000F6FE00212046BDE81040FFF7F0BE10BD97
:10088000F0B5002201274FF0030C0B6807FA02F5C0
:100890002B40AB422CD1066853000CFA03F4A6435C
:1008A00006600E79D0F800E09E4046EA0E0606602B
:1008B0000E79012E01D0022E12D18668A6438660E1
:1008C0004E79D0F808E09E4046EA0E0686604668FB
:1008D000AE43466045688E799640B6B23543456072
:1008E000C568A543C560CC799C40C3681C43C460FF
:1008F000521C102AC9D3F0BD4FF6FF7101600021D0
:10090000017141718171C171704708B541F4803244
:100910000092C261C1610099C161C169C069009062
:1009200008BD0246002012690A4200D0012070472B
:10093000006980B270470246002052690A4200D026
:1009400001207047406980B270470183704741833E
:1009500070470AB101837047418370474161704716
:1009600042694A40426170474B07DB0E9A40C90812
:1009700010B500EB8100016A0F249C40A143016285
:10098000016A1143016210BD0000024000040240F0
:1009900000080240000C0240001002400014024017
:1009A00000180240001C02400020024000240240C7
:1009B00000280240CD4910B5884206D101211020FF
:1009C000FFF775FE0021102020E0C949884202D1BE
:1009D00001214C0429E0C749884202D101218C043D
:1009E00023E0C549884202D10121CC041DE0C3495E
:1009F000884202D101210C0517E0C149884209D182
:100A000001212020FFF753FE00212020BDE81040E7
:100A1000FFF74DBEBB49884202D101218C0704E09B
:100A2000B94988420AD1012144052046FFF735FE25
:100A30002046BDE810400021FFF72FBE10BD7FB556
:100A40000446008A0D46C98820F4405001432182A3
:100A5000A08941F20C618843A9882A8911436A89D7
:100A600002431143A181A08A20F44071A889084360
:100A7000A0826846FFF72CFD9C48844202D0A04823
:100A8000844201D1039800E00298A189090400EB97
:100A9000C00101EB0010296801D5490000E0890080
:100AA000B0FBF1F06422B0FBF2F109010B096FF029
:100AB00018056B4300EB8300A3891D044FF032033C
:100AC00006D503EBC000B0FBF2F000F0070005E034
:100AD00003EB0010B0FBF2F000F00F0008432081A0
:100AE0007FBD4FF41651016000218180C1800181DA
:100AF0000C2242818181704710B5028A4C8822F411
:100B000070630A8822438C88C9880C4322431A43A5
:100B1000028210BD0021018041808180C180704728
:100B20000029818902D041F4005101E021F40051F3
:100B300081817047028B02F47F420283028B0A4359
:100B4000028370470029818902D041F4004101E00D
:100B5000C1F30E01818170470029818A02D041F4DE
:100B6000006101E021F4006181827047C1F3080156
:100B7000818070478088C0F308007047028A22F0A5
:100B80000F020282028A0A43028270470029818989
:100B900002D041F0020101E021F0020181817047A1
:100BA000828922F40062828182890A4382817047AD
:100BB000028A22F020020282028A0A4302827047DD
:100BC0000029018A02D041F4804101E021F48041F2
:100BD00001827047818941F00101818170470029BC
:100BE000818A02D041F0080101E021F008018182F0
:100BF0007047028BD2B20283028B42EA0121018349
:100C000070470029818A02D041F0200101E021F0E3
:100C10002001818270470029818A02D041F01001B1
:100C200001E021F0100181827047828A22F00402E3
:100C30008282828A0A43828270470029818A02D096
:100C400041F0020101E021F0020181827047002A97
:100C5000828A01D00A4300E08A438282704710B53D
:100C6000C1F3421301F01F040121A140012B07D061
:100C7000022B07D01430002A026805D00A4304E092
:100C80000C30F8E71030F6E78A43026010BD0246E8
:100C9000002012880A4200D001207047C943018019
:100CA000704770B501F01F0501260024C1F34213FF
:100CB00006FA05F2012B0FD0022B0FD0838A4FEAE0
:100CC00011210088134206FA01F600EA060001D05D
:100CD00000B10124204670BD8389F0E7038AEEE766
:100CE0000A0A01219140C943018070470010014068
:100CF0000044004000480040004C004000500040CC
:100D00000014014000780040007C00402248416807
:100D1000491C41608168002902D08168491E8160B8
:100D2000704710B51C4C2078002821D10120FFF716
:100D30001DFBFFF738FB0028FBD0184801684FF473
:100D40007A70B1FBF0F0401EB0F1807F11D24FF00D
:100D5000E0225061124BF02083F8140D00209061C6
:100D6000072010610F48B1FBF0F0E0600120207017
:100D700010BDFEE708480078002805D04FF0E020BD
:100D8000016941F00201016170474FF0E020016903
:100D900021F002010161704710000020780000205E
:100DA0000FE000E0C0C62D002DE9F0411F461446BB
:100DB0000E460546FFF7B5FF01213846FFF71DFC3B
:100DC000E24804600121017100228271C171032196
:100DD000417101463046FFF753FD2E60AC80BDE8FF
:100DE000F08170B50446808821684883D74D012082
:100DF0002871A088286029462068FFF741FD4FF43C
:100E0000F07000F09CF900202871A0882860294625
:100E10002068FFF735FD3C2000F091F9A18820689B
:100E2000FFF77FFD04464FF4D27000F088F92046AA
:100E300070BD70B504468088216800264883C34D84
:100E400001202871A088286029462068FFF718FD36
:100E5000012000F074F900202871A088286029463C
:100E60002068FFF70DFD0E2000F069F9A1882068C9
:100E7000FFF757FD00B101262D2000F060F9304644
:100E800070BD70B506460824002006E045083046CF
:100E9000FFF7CFFF45EAC010C0B2641EE4B2F5D23E
:100EA00070BD2DE9F04104460F46216880884883D3
:100EB000A64D01202871A088286029462068FFF7E8
:100EC000DFFC012000F03BF9002637B12E71A0882D
:100ED000286029462068FFF7D3FC3B2000F02FF95B
:100EE0002E71A08828602068BDE8F0419749FFF77F
:100EF000C7BC70B50D460646082405E005F00101A3
:100F00003046FFF7CEFF6D08641EE4B2F6D270BD26
:100F10002DE9F05F4FF0000804460127007A89466A
:100F200046463D46C246C34690BB2046FFF759FFA2
:100F300040B184F806B084F808B084F807B0002007
:100F4000BDE8F09F49462046FFF7D3FF2046FFF754
:100F500070FF81462046FFF76CFF4946B9F1010F4B
:100F600001D1012831D081450FD1A079B84205D9EE
:100F700004EB0600407A284201D103E002D14FF091
:100F8000010101E04FF0000119B1012914D005E081
:100F90002BE0B846092F01D284F80780A019427AC5
:100FA000AA4342722046FFF77CFF7F1C6800FFB215
:100FB00010F0FF0504D006E0A019427A2A43F0E7BA
:100FC000761CF6B20125082EC0D3412F08D35FEA64
:100FD0000800A07101D1012020724FF0010A02E047
:100FE000BAF1000F01D0607A38B984F806B084F8FD
:100FF00008B084F807B04FF0000A5046A0E700217F
:1010000081710172C171704710B50246FFF7F7FF99
:10101000BDE81040F02110467AE7F02178E72DE98D
:10102000FC41044600206D462118497A2954401C91
:101030000828F9DB94F80680277AE6794020A07129
:1010400000202072F0212046FFF762FF60B10121ED
:10105000002023182A5C5B7A9A4201D0012104E027
:10106000401C0828F5DB00E00021002023182A5C42
:10107000401C5A720828F9DB84F806802772E67152
:101080000846BDE8FC814172012100224318491C39
:10109000C9B25A720829F9D340218171C271027212
:1010A0007047C17900228171C271002901D10121EB
:1010B000017270470844407A704770B50D46064685
:1010C0005521FFF716FF00243046295DFFF711FF79
:1010D000641CE4B2082CF7D370BD70B50D4606460B
:1010E0005521FFF706FF00243046295DFFF701FF79
:1010F000641CE4B2082CF7D370BD002283185B7A1D
:101100008B54521CD2B2082AF8D3704730B504462B
:10111000002010E014F8013B082280EA030515F0D6
:10112000010F4FEA500001D080F08C005B08521E86
:1011300012F0FF02F1D1491EC9B2EBD230BD044911
:1011400009684843401EFDD270470000200000207F
:101150001C000020FC4A0146904200D10020FB4ABE
:10116000914200D10120FA4A914200D10220F94A6D
:10117000914200D10420F84A914200D10520F74A5B
:10118000914200D10620704770B50446012120200D
:10119000FFF75BFAF24DCCB1012C28D101214020A0
:1011A000FFF72BFAEF4C08220E212046FFF7DCFB5D
:1011B000082209212046FFF7D7FB4FF4844129601C
:1011C0002046BDE87040E649FFF75ABB01210420E4
:1011D000FFF713FAE44C082206212046FFF7C4FB70
:1011E000082207212046FFF7BFFBC021E7E770BDBB
:1011F00070B5044601210805FFF71DFA002C22D125
:1012000001210420FFF7F9F901210820FFF7F5F982
:10121000D54E08220C213046FFF7A6FBD34D0822FD
:1012200002212846FFF7A0FBCD4CA81421462060E0
:101230003046FFF725FB0420206021462846BDE804
:101240007040FFF71DBB70BD70B504460121C80496
:10125000FFF7F1F9C24DCCB1012C28D101210420B6
:10126000FFF7CBF9C04C08220A212046FFF77CFB90
:1012700008220B212046FFF777FB4FF440612960DD
:101280002046BDE87040B649FFF7FABA012108468A
:10129000FFF7B3F9B64C082200212046FFF764FBA4
:1012A000082201212046FFF75FFB0321E7E770BD1D
:1012B00070B5044601218804FFF7BDF9A84D4FF42D
:1012C0004066D4B1012C20D0022C2FD1012108205E
:1012D000FFF793F9A54C072208212046FFF744FBAE
:1012E000072209212046FFF73FFBB1102960204665
:1012F000BDE870409A49FFF7C3BA01210220FFF709
:101300007CF907220A219B4C06E001210420FFF70B
:1013100074F90722944C0A212046FFF725FB072287
:101320000B212046FFF720FB2E60E0E770BD70B573
:10133000044601214804FFF77EF9894DC4B1012C10
:1013400027D101210820FFF758F9884C07220521F1
:101350002046FFF709FB072206212046FFF704FB82
:10136000602129602046BDE870407D49FFF788BABA
:1013700001210846FFF741F97D4C07220221204652
:10138000FFF7F2FA072203212046FFF7EDFA0C21BE
:10139000E7E770BD70B5044601211020FFF755F94D
:1013A0006F4DC4B1012C28D101210220FFF725F98E
:1013B000704C072206212046FFF7D6FA0722114675
:1013C0002046FFF7D1FAC02129602046BDE87040D1
:1013D0006349FFF755BA01210846FFF70EF9644C3F
:1013E000072209212046FFF7BFFA07220A212046DB
:1013F000FFF7BAFA4FF4C061E6E770BD2DE9F0419E
:101400000446574886B0884602210171002585713F
:101410000127C771032141714B480C260092844279
:101420000FD14046FFF7B6FF2520ADF80A60ADF8B2
:1014300006508DF81000ADF80C50ADF80850ADF81E
:101440000450424884420FD14046FFF770FF2620E7
:10145000ADF80A60ADF806508DF81000ADF80C50EC
:10146000ADF80850ADF80450394884420FD14046D9
:10147000FFF71EFF2720ADF80A60ADF806508DF883
:101480001000ADF80C50ADF80850ADF804503148DC
:1014900084420FD14046FFF7D7FE3420ADF80A60F2
:1014A000ADF806508DF81000ADF80C50ADF80850AE
:1014B000ADF80450284884420FD14046FFF798FE0B
:1014C0003520ADF80A60ADF806508DF81000ADF883
:1014D0000C50ADF80850ADF80450204884420FD1AC
:1014E0004046FFF751FE4720ADF80A60ADF80650C0
:1014F0008DF81000ADF80C50ADF80850ADF8045060
:1015000000212046FFF70CFB2046FFF753FA6946FF
:101510002046FFF794FA01212046FFF701FB012244
:1015200040F225512046FFF79AFB8DF813708DF895
:1015300011502046FFF70EFE8DF8120004A8FEF7AA
:10154000A0FE06B0BDE8F08100100140004400405C
:1015500000480040004C0040005000400014014092
:10156000280000200018024000080240000C024041
:1015700000000240000402408F4A0146904200D120
:101580008E488F4A914201D18C480C308D4A91424D
:1015900001D18A4818308C4A914201D187482430C1
:1015A0008A4A914201D185483030894A914201D11D
:1015B00082483C30704700B50023FFF7DDFFC2884A
:1015C00062B141898388994201D100214181036838
:1015D00089B25B56491C4181521EC280D8B200BDFF
:1015E00000B5FFF7C9FFC1888088814201D1012081
:1015F00000BD002000BD10B50C46FFF7BDFFC3883D
:1016000042890DE08188914200D100220168895C05
:10161000A14201D1012010BD521C5B1E92B29BB2AF
:10162000002BEFD1002010BD00B5FFF7A5FFC0884B
:1016300008B1002000BD012000BDF0B515460E46E2
:1016400007460024FFF7F0FFC0B90A213846FFF72C
:10165000D2FF18B93846FFF7C3FF78B16D1EAC4210
:1016600008DA3846FFF7A7FF305504F101040A28CD
:10167000A4B2F4D1002030552046F0BD0020F0BDCA
:1016800000B5FFF779FF0021C1800181418100BDD4
:1016900013B5044680212046FFF7F9FA0028F9D057
:1016A0009DF80400A0801CBD70B50C46054603E003
:1016B0002846641CFFF7ECFF21780029F8D170BDA3
:1016C000C388828893420DD20389934201D10022BC
:1016D000028103890268D1540189491C0181C188B2
:1016E000491CC180704710B5334C40F2255120464B
:1016F000FFF7D7FA002805D0A088BDE81040C1B296
:101700002E48DDE710BD10B540F225512C48FFF7FB
:10171000C8FA002808D02A48001D0088BDE81040FB
:10172000C1B226480C30CBE710BD10B540F22551B0
:101730002448FFF7B6FA002808D02248001D008888
:10174000BDE81040C1B21D481830B9E710BD10B552
:1017500040F225511C48FFF7A4FA002808D01A4887
:10176000001D0088BDE81040C1B214482430A7E72E
:1017700010BD10B5154C40F225512046FFF791FAE7
:10178000002806D0A088BDE81040C1B20B48303018
:1017900096E710BD10B540F225510D48FFF781FACC
:1017A000002808D00A48001D0088BDE81040C1B2DA
:1017B00002483C3084E710BD00100140300000209A
:1017C0000044004000480040004C004000500040F1
:1017D0000014014092B000F0D8F8FFF7A2FA0823F5
:1017E0000122254908A8FFF7DFFA244E4FF4E13221
:1017F00001213046FFF702FE08A8FFF705FC00258F
:101800000DAC0AE06D1CEDB204EBC50108A8083967
:10181000FFF773FC08A8FFF700FC0028F2D135B3EE
:101820002A4617A1684600F01DF96946374630463A
:10183000FFF73AFF0026A146B84615E0002409EB61
:10184000C60719A13A5D684600F00CF969464046A2
:10185000FFF72AFF641CE4B2082CF2D311A1404622
:10186000FFF722FF761CF6B2AE42E7D303E010A1E9
:101870003046FFF719FFFEE7000C02400010014060
:101880004465766963657320666F756E64206F6E5C
:1018900020312D7769726520696E7374616E63659E
:1018A0003A2025640A0000003078253032582000A4
:1018B0004E6F2064657669636573206F6E204F6E8E
:1018C00065576972652E0A0A000000007047FEE73E
:1018D000FEE7FEE7FEE7704770477047704710B5B8
:1018E000FFF714FA10BD00000CB500225449009215
:1018F0000192086840F4803008604FF4A043086803
:1019000000F4003001900098401C0090019810B93C
:1019100000989842F3D10868800334D501200190E3
:1019200047484030026842F08052026045480268F1
:1019300042F4404202604248083002680260026895
:1019400042F400420260026842F4A0520260031FA7
:101950003D4A1A600A6842F080720A600A68920181
:10196000FCD53A4940F205720A60016821F0030192
:101970000160016841F0020101600168C1F3810169
:101980000229FAD10CBD01920CBD314810B5016895
:1019900041F4700101602A48016841F001010160D1
:1019A000274A00210832116002682A4B1A4002605F
:1019B000031D294A1A60026822F48022026020482E
:1019C0000C300160FFF790FF21494FF00060803933
:1019D000086010BD70B51A4D083528681F4B2049A6
:1019E00010F00C0004D05E10042803D0082803D0A7
:1019F0000B601BE00E6019E0114A121D1068C0F365
:101A00008054106800F03F0014B1B6FBF0F001E024
:101A1000B3FBF0F013681268C3F388135843C2F3A2
:101A20000142521C5200B0FBF2F0086028680C4AD8
:101A3000C0F30310121D105C0A68C2400A6070BD3A
:101A4000003802400070004008544007003C02404B
:101A500088ED00E0FFFFF6FE103000240024F400C3
:101A6000780000200FB41CB5074B06AA7B446946DA
:101A70000090059800F097F90020694600F0A6F95B
:101A80001CBC5DF814FB00005D03000070B504464B
:101A900085690068C10601D5302600E02026C00710
:101AA00007D070BDD4E9012130469047206A401C20
:101AB00020626D1EF6D570BD70B50446856900784C
:101AC000C00707D170BDD4E9012120209047206ACA
:101AD000401C20626D1EF6D570BD00002DE9F0415E
:101AE0000646002410687529314616A510D0AFF3BC
:101AF0000080002802DA404213A507E031688A0717
:101B000001D512A502E0490704D511A5012401E081
:101B1000AFF3008000210A2206F1240709E0B0FBA0
:101B2000F2FCB0FBF2F302FB1C0030307854184694
:101B3000491C0028F3D123462A463046BDE8F0412F
:101B400000F0D3B8000000002D0000002B000000C2
:101B50002000000070B504460D4621461068AFF322
:101B600000802188090502D50F4A7A4402E00E4A16
:101B70007A440E32002104F1240305E000F00F0640
:101B80000009965D5E54491C0028F7D12078002397
:101B9000000704D5702D02D009B10223113220466E
:101BA000BDE8704000F0A1B8EC0200002DE9F05F44
:101BB000894604464FF0000ADFF824B1FB44C0F820
:101BC00020A02046E168884700287DD0252806D03F
:101BD000D4E901219047206A401C2062F1E70025EA
:101BE0005F462046E16888472028064607DB312EFD
:101BF00005D2B81910F8200C08B10543F1E7A80781
:101C000001D525F00405C4F81CA00027C4F818A0CD
:101C10002A2E09D0304600F014F938B304EB8708B7
:101C2000303EC8F8186019E059F8041B204604EB50
:101C300087029161E1688847012F064618D1E06963
:101C4000002820DA25F020051DE0D8F8180000EB68
:101C5000800006EB40003038C8F818002046E168E4
:101C60008847064600F0EDF80028EED1012F0AD093
:101C70002E2E08D12046E16888477F1C0646022F99
:101C800045F02005C4DBA069002803DA404245F096
:101C90000105A061E80701D025F01005A6B1A6F165
:101CA0004100192802D8203645F400654A463146DD
:101CB000204625604D46FEF7A1FA60B1012807D005
:101CC000ED1D25F0070000E007E000F1080978E7C6
:101CD00005F1040975E730467AE7206ABDE8F09F10
:101CE000C20200007047704770472DE9F0470D466B
:101CF00099469246044600F124080168880604D5F6
:101D0000E06921F01001216000E00120A84201DD1E
:101D1000471B00E00027A1697A1902EB0900081AA5
:101D2000A0612078C00602D42046FFF7AFFE00264F
:101D300008E0D4E901211AF806009047206A401C07
:101D4000761C20624E45F4DB2078C0060AD520467A
:101D5000FFF79CFE06E0D4E9012130209047206A7D
:101D6000401C2062381EA7F10107F4DC07E0D4E92B
:101D7000012118F805009047206A401C2062281EA7
:101D8000A5F10105F3DC2046FFF796FE207800065A
:101D900002D50220BDE8F0870120FBE701694A1C5B
:101DA00002610878704700B58FB0CDE9013100219C
:101DB000059105497944CDE9031011466846FFF7BE
:101DC000F5FE0FB000BD0000E5FFFFFF0A6802F856
:101DD000010B0A607047754600F028F8AE46050012
:101DE0006946534620F00700854618B020B5FEF737
:101DF00031FABDE820404FF000064FF000074FF0E9
:101E000000084FF0000B21F00701AC46ACE8C00918
:101E1000ACE8C009ACE8C009ACE8C0098D46704721
:101E20000446AFF300802046FEF7FFF900487047F4
:101E30004C01002001491820ABBEFEE7260002003D
:101E4000704730380A2801D20120704700207047BF
:101E50004FF04070E1EE100A7047303132333435C4
:101E600036373839414243444546403058003031D6
:101E700032333435363738396162636465664030F1
:101E800078000400000800000000000000020001CB
:101E900000001000B41E0008000000208C000000AC
:101EA000C4010008401F00088C0000202407000027
:101EB000E001000800000000010203040102030425
:101EC00006070809000000000000000000000000F4
:101ED0000000000000000000000000000000000002
:101EE000000000008C000020200000000000000026
:101EF000AC0000202000000000000000CC0000200A
:101F00002000000000000000EC0000202000000085
:101F1000000000000C010020200000000000000074
:101F20002C0100202000000000000000007A030ABD
:101F30000000000000000000010203040607080979
:0400000508000239B4
:00000001FF
